:020000040800F2
:10000000D80F0020A1010008392F0008412D000859
:10001000ED2E00089513000895320008000000003E
:100020000000000000000000000000003D2F00085C
:100030000D150008000000003B2F00083F2F0008AE
:10004000BB010008BB010008BB010008BB010008A0
:10005000BB010008BB010008BB010008BB01000890
:10006000BB010008BB010008BB01000881140008A7
:10007000BB010008BB010008BB010008BB01000870
:10008000BB010008BB01000825120008BB010008E5
:10009000BB010008BB010008BB010008BB01000850
:1000A000BB010008BB010008BB010008BB01000840
:1000B000BB010008BB010008BB010008BB01000830
:1000C000BB010008BB010008BB010008BB01000820
:1000D000BB01000879320008BB010008BB01000821
:1000E000BB010008BB010008BB01000800F002F8DA
:1000F00000F047F80AA090E8000C82448344AAF17B
:100100000107DA4501D100F03CF8AFF2090EBAE878
:100110000F0013F0010F18BFFB1A43F0010318473B
:10012000BC3F0000DC3F0000103A24BF78C878C113
:10013000FAD8520724BF30C830C144BF04680C60ED
:10014000704700000023002400250026103A28BF35
:1001500078C1FBD8520728BF30C148BF0B60704739
:10016000662903F05987002070471FB500F014FB83
:1001700004000020002103F047F9E0601FBD10B526
:1001800010BD00F021FC1146FFF7EFFF03F018F956
:1001900000F03FFC03B4FFF7F2FF03BC00F080FC6B
:1001A0000948804709480047FEE7FEE7FEE7FEE70B
:1001B000FEE7FEE7FEE7FEE7FEE7FEE70448054947
:1001C000054A064B70470000C52F0008ED000008E7
:1001D000D8090020D80F0020D80B0020D80B002011
:1001E0000FB4044910B503AA029800F0C3FA10BC7A
:1001F0005DF814FB380000202DE9F0474FF0000AAD
:1002000089460446C0F820A02046E16888470028B7
:1002100076D0252806D0D4E901219047206A401CD9
:100220002062F1E7E168204600258847C4F81CA059
:1002300006460027C4F818A02A2E09D0304603F03D
:100240004EF838B304EB8708303EC8F8186019E060
:1002500059F8041B204604EB87029161E168884746
:10026000012F064618D1E069002820DA25F0200584
:100270001DE0D8F8180000EB800006EB4000303895
:10028000C8F818002046E1688847064603F027F8BA
:100290000028EED1012F0AD02E2E08D12046E16889
:1002A00088477F1C0646022F45F02005C4DBA06965
:1002B000002803DA404245F00105A061E80701D0BB
:1002C00025F01005B6B1A6F14100192802D8203654
:1002D00045F400654A463146204625604D46FFF705
:1002E0003FFF58B1012806D0ED1D25F0070000F1B1
:1002F000080989E704E005F1040985E730468AE743
:10030000206ABDE8F0874FF0000200B5134694461E
:100310009646203922BFA0E80C50A0E80C50B1F15D
:100320002001BFF4F7AF090728BFA0E80C5048BF71
:100330000CC05DF804EB890028BF40F8042B08BF0F
:10034000704748BF20F8022B11F0804F18BF00F80B
:10035000012B704770477047704770472DE9FF4F7A
:100360000C461E464FF0FF378BB0D2E90001DDF896
:1003700060800A908A46C1F30A5505B93D460021BE
:1003800008464FF00000BAF1000F00F4400005DA13
:1003900000EB80004FF4400101EA50004FEA905911
:1003A000B9F1010F00DDB9460A9850EA4A000ED0B3
:1003B00044F61050A5F2FF3545432F14B8F1000F55
:1003C0001ED07542291E1EDDC9F100021CE0B8F1E5
:1003D000010F4FF0000001D0302103E0F24305E0AF
:1003E0002154401CB042FBDB304600220021215446
:1003F0000B99C1F80880C1E900200FB0BDE8F08F6B
:10040000BD1B6D1CDEE74A4600DA694206A800F013
:1004100065FA06AB93E8070003AB83E80700504694
:100420000A9900F044FB8DE80700A0F500501F3842
:1004300000900398002D09DD42F21F014A4608444E
:1004400003A90390684600F0A3FD08E0A0F5005062
:100450004A461F3803A90390684600F0ADFD8DE8B9
:1004600007000004000C03D04FF0FF30410800E00B
:100470001046B8F1000F03D00022009215461EE08E
:10048000751E05D400F08CF9303262556D1EF9D519
:10049000B3460122084302D000227F1C04E02078EA
:1004A000302801D100227F1E002A099786D01DE046
:1004B000112D07DA00F074F9303262556D1C50EAE4
:1004C0000102F5D1084302D00098C8B10EE0002126
:1004D000681E05E0235C625C63542254401E491C84
:1004E0008142F7DBAB46A81B401E0990002004F8B0
:1004F0000B000B98099AC0F80880C0E9002B7CE734
:1005000011264FF0000859E72DE9F04F88460446C0
:10051000D21D22F0070191B0D1E90001CDE90A0115
:1005200002F0B9FE02460B98C00F01D02D2007E063
:100530002068810701D52B2002E0202101EAC000BC
:10054000032A099001D0072A05DB034641462046CD
:1005500000F084F90BE12078800601D5E06900E025
:100560000620B8F1650F814606D0B8F1660F18D0A5
:10057000B8F1670F70D131E00020B9F1110F009090
:1005800001DB112301E009F101030AAA01A90CA86A
:10059000FFF7E4FEDDE90C70002609F10105834652
:1005A00047E001204B4600904FF000470AAA01A9FE
:1005B0000CA8FFF7D3FEDDE90DB00C995D460026CF
:1005C00010B909F101000D18B9EB050003D4C0F111
:1005D000FF3609F10105A5EB09002BE0B9F1010F88
:1005E00001DA4FF001090020B9F1110F00904846DF
:1005F00001DD112300E003460AAA01A90CA8FFF7B8
:10060000ADFEDDE90C704D460026834620780007DC
:100610000AD4AB4500DA5D4601A8012D04DD41197D
:1006200011F8011C302907D04F4502DA17F1040FE9
:1006300004DA012082460FE06D1EEEE7002F02DC97
:10064000ED1B3E4403E0781CA84200DD7D1CB81B76
:1006500000F1010A4FF000472078000703D4AA45B3
:1006600001DB4FF0FF3A0021B7F1004F0DF14308D5
:100670008DF8431024D002202B23002F01DA7F4273
:100680002D230A21021EA0F1010000DC5FB197FBBF
:10069000F1FC97FBF1F201FB1C7C17460CF1300CCE
:1006A00008F801CDEEE7A8F10100037021880905E3
:1006B00001D5452100E06521A0F1010800F8011CE9
:1006C00009980FA9A1EB0807FF1D00B101204119EE
:1006D00001EBEA70A1693844081A401EA061207835
:1006E000C00602D42046AFF30080099828B1D4E9AF
:1006F00001219047206A401C20622078C00622D544
:100700002046AFF300801EE0002E04DBB34502DD7F
:1007100001A8805D00E03020D4E901219047206AE3
:10072000401C2062761CAAF101005FEA000A0AD18F
:1007300000F032F8C0680168405CD4E901219047BC
:10074000206A401C2062281EA5F10105DCDC07E0C0
:10075000D4E9012118F8010B9047206A401C20625F
:10076000381EA7F10107F3DC2046AFF30080032019
:1007700011B043E6074B70B50D467B4400F05BF8C3
:100780000446284600F018F910B14FF0FF3070BD54
:10079000204670BDCB2B0000004870479809002010
:1007A00030B5B0F10A024FEA900E71F100034EEA43
:1007B000817EB0EB0E0061EB91014FEA101E4EEA14
:1007C000017E10EB0E0041EB11114FEA102E4EEAA4
:1007D000016E10EB0E0041EB11214FEA104E4EEA74
:1007E000014E10EB0E0041EB1141401841F10001A8
:1007F0004FEAD00040EA41704FEAD10110EB80058A
:100800004FEA810444EA907444EB01046D1944EB0F
:100810000404521BA3414FF0000348BF0A3200D525
:1008200030BD401C41F1000130BD000001694A1C8F
:1008300002610878704700B58FB0CDE90131002121
:10084000059105497944CDE9031011466846FFF743
:10085000D3FC0FB000BD0000E5FFFFFF2DE9F04124
:100860001F46044603260168072A01F4006004DBE2
:1008700008B116A505E016A503E008B115A500E02E
:1008800015A521F010002060A069C01EA0610FB165
:10089000401EA0612046AFF300804FB1D4E9012192
:1008A00038469047206A401C2062C01C206206E047
:1008B000206AFAE7D4E9012115F8010B9047761E6A
:1008C000F8D22046AFF30080BDE8F0814E414E00E3
:1008D0006E616E00494E4600696E66002DE9F04774
:1008E000814616468AB0334878440DC88DE80D001D
:1008F00030487844801C03AC0DC884E80D0041F6F4
:100900009B300844372190FBF1F290FBF1F5A5F103
:10091000800501FB12041B3C02D56442012000E06B
:100920000020DFF890A080460027FA44AAF1BE0A12
:100930000DE0E00709D03246684607EB47010AEBB5
:10094000810100F039FB8DE8070064107F1C002C4A
:10095000EFD1184F7F44AC3F18E0E80714D007EB05
:1009600004100DF1180A90E80E008AE80E00C06825
:10097000F04201D198190890324606A903A800F068
:100980001BFB03AB83E807006D10641C002DE4D152
:1009900032466946B8F1000F03A802D000F0F8FA19
:1009A00001E000F009FBC9E90001C9F808200AB01C
:1009B000BDE8F087D8370000007B00F0800070476A
:1009C00000487047780900207546FFF7F9FFAE46EA
:1009D00005006946534620F00700854618B020B54B
:1009E000FFF7ECFBBDE820404FF000064FF000079A
:1009F0004FF000084FF0000B21F00701AC46ACE8C7
:100A0000C009ACE8C009ACE8C009ACE8C0098D4633
:100A100070470446AFF300802046FFF7BBFB0000A1
:100A20004FF0013C50F8042B51F8043B9A4221D17D
:100A3000A2EB0C03934313EACC1317D150F8042B09
:100A400051F8043B9A4215D1A2EB0C03934313EAED
:100A5000CC130BD150F8042B51F8043B9A4209D126
:100A6000A2EB0C03934313EACC13DBD04FF000004E
:100A7000704700BFD01A01BAB1FA81F101F0180134
:100A800022FA01F0CB40C1F12001DBB2C0B2C01AA2
:100A90002CFA01F3D11A914311EAC311E6D1704740
:100AA00001491820ABBEFEE72600020070475FEA4E
:100AB000400C08BF91F0000F4FEA8C234FEAC1228F
:100AC00043EA51514FEA1C5018BF00F5F0404FEA7D
:100AD000300018BF41F000415FEA6C5C00F02980F3
:100AE000BCF1FF3F08BF40F080407047130C06BFC9
:100AF00012044FF0100C4FF0000C130E04BF120242
:100B00000CF1080C130F04BF12010CF1040C930F2D
:100B100004BF92000CF1020CD30F04BF52000CF181
:100B2000010C11464FF00002A0F11F00A0EB0C00D9
:100B3000704711F0004F08BF704731F000413FF49B
:100B4000D5AF0B0C06BF09044FF0100C4FF0000C92
:100B50000B0E04BF09020CF1080C0B0F04BF0901B6
:100B60000CF1040C8B0F04BF89000CF1020CCB0FAD
:100B700004BF49000CF1010CCCF12003A0EB0C00E8
:100B800022FA03F302FA0CF241EA030100F1010038
:100B9000704720F07F4C80EA030023F07F47ACEBE6
:100BA000070303F57C5300F0004003F1FF032DE938
:100BB00080494FEA154B09B44FEA144325EA0B4E1E
:100BC00024EA03480FF2042606EB132749083E786F
:100BD0005FEA320203FB0667C7F5000707FB06F66C
:100BE0004FEA54374FEAD64606F1020607FB066C79
:100BF000CCF1005C4FEA1C472CEA074C07FB06F4DB
:100C00000CFB06F504EB15464FEA961634BF0020A0
:100C10004FF000404FEAD13706FB07FC4FEA1C4C6F
:100C20000CFB0BF7D21B03FB0CF761EB07010CFB72
:100C30000EF7B0EB074072EB17420CFB08F734BF1E
:100C4000A2EB0742B2EB074261EB17414FEA0C44BB
:100C50004FEA910706FB07FC4FEA1C4C0CFB0BF715
:100C6000B0EBC74072EB573203FB0CF734BFA2EB7B
:100C7000C742B2EBC74261EB57310CFB0EF7B0EB4A
:100C8000C70072EB57720CFB08F734BFA2EBC70228
:100C9000B2EBC70261EB5771039F4FEA816141EAF2
:100CA000921104EBCC044FEAD1374FEA826206FB83
:100CB00007FC42EA90124FEA80604FEA1C4C0CFBA2
:100CC0000BF7D21B03FB0CF761EB07010CFB0EF7D4
:100CD000B0EB074072EB17420CFB08F734BFA2EBF6
:100CE0000742B2EB074261EB17414FEA8C554FEADE
:100CF000910704EB9C2406FB07FC4FEA1C4C0CFB01
:100D00000BF7B0EBC74072EB573203FB0CF734BF65
:100D1000A2EBC742B2EBC74261EB57310CFB0EF7B7
:100D2000B0EBC70072EB57720CFB08F734BFA2EBB5
:100D3000C702B2EBC70261EB577115EB4C254FEAC6
:100D4000816141EA92114FEA82624FEAD13742EA69
:100D5000901206FB07FC44F100044FEA80604FEA62
:100D60001C4C0CFB0BF7D21B03FB0CF761EB0701D0
:100D70000CFB0EF7B0EB074072EB17420CFB08F7C9
:100D800034BFA2EB0742B2EB074261EB174115EB10
:100D90001C154FEA813141EA92414FEA823242EA20
:100DA00090424FEA80304FEA0C7644F1000448EA62
:100DB00003434EEA0B484FF0000EB2EB080C71EB08
:100DC000030724BF624639464EEB0E0E4FF0000B70
:100DD0000018524149414BEB0B0BB2EB080C71EB85
:100DE00003077BF1000B24BF624639464EEB0E0E23
:100DF0004FF0000B0018524149414BEB0B0BB2EB8B
:100E0000080C71EB03077BF1000B24BF62463946E7
:100E10004EEB0E0E51EA020718BF46F0010616EB24
:100E20000E7655F1000254F1000103D5BDE88901A9
:100E3000BDE80088BDE88901BDE80048B619524107
:100E400041EB0101A3F10103704780807F7E7D7C2F
:100E50007B7A7978777676757473727171706F6E4C
:100E60006E6D6C6C6B6A6A696868676666656464F7
:100E7000636362616160605F5F5E5E5D5D5C5C5B81
:100E80005B5A5A59595858575756565555555454F0
:100E9000535352525251515050504F4F4F4E4E4D4E
:100EA0004D4D4C4C4C4B4B4B4A4A4A49494948489A
:100EB00048474747474646464545454444444443DA
:100EC00043434342424242414141002B26D47700F2
:100ED00021D01CB54FEA370703B44FF010004FF094
:100EE00010014FF000000FBCBDE810400BF1010BEA
:100EF000BBF1010F08BF5FEA170722BF12F1010221
:100F000011F101014FF0004143F1000300F00040F6
:100F100043EA00007047F9D35708DAE746EA064685
:100F200013F1400F4FEA16461FDD13F1200FDFBF0C
:100F300016430A46002120335B42C8D0C3F1200784
:100F400046EA064602FA07F74FEA164646EA070659
:100F5000C3F1200722FA03F201FA07F721FA03F19D
:100F60004FF0000342EA0702B1E746EA020646EA0A
:100F700006464FEA164646EA0106BCBF46EA064662
:100F8000360C4FF000034FF000024FF000019EE7D7
:100F90002DE9C048934630B491E8380007C831EADB
:100FA000400C48BF34EA430C03D5FFF7F2FDFFF7CE
:100FB0008CFFF0BCBDE800882DE9C048934630B4F2
:100FC00091E8380007C810F0804F08BF13F0804F39
:100FD00003D100F005F8FFF778FFF0BCBDE800880A
:100FE00020F07F4780EA030023F07F4C07EB0C03DF
:100FF000A3F57C5300F00040A3F1FE0392F0000F34
:1010000000F0B38095F0000F00F077802DE90149E2
:101010004FEA11404FEA144621EA004800FB06FC63
:1010200024EA064708FB06F607FB08F800FB07F76B
:1010300018EB06484CEB164C4FEA124B18EB0748DE
:101040004FEA15464CEB174022EA0B4E0BFB06FC11
:1010500025EA06470EFB06F607FB0EFE0BFB07F71D
:101060001EEB064E4CEB164C4FF000061EEB074EE7
:101070004CEB174B18EB0B0840F1000018EB0E0B74
:1010800058EB000840F100008F1A4FF000013CBF00
:10109000C943661B14BFB5EB040C00213CBFC94318
:1010A000F61B4FEA17444EEA8E0E27EA04454FEA34
:1010B0001C4704FB07622CEA074C05FB07F70CFBF7
:1010C00005F604FB0CFC16EB074642EB174216EB49
:1010D0000C4642EB1C421BEB060658EB0202414158
:1010E00046EA9E0601D5BDE80189B619524141EB99
:1010F0000101A3F10103BDE801894FEA14454FEA5C
:10110000114724EA054621EA074C05FB07F406FBD4
:1011100007F70CFB06F105FB0CFC11EB074144EB58
:1011200017444FEA124711EB0C4144EB1C4422EAEE
:10113000074C05FB07F206FB07F70CFB06F605FB61
:101140000CFC16EB074642EB174216EB0C4642EB43
:101150001C456A1854F1000148BF7047B619524146
:1011600041EB0101A3F10103704795F0000F37D067
:101170004FEA11424FEA144721EA024624EA074C9B
:1011800002FB07F106FB07F70CFB06F402FB0CFC65
:1011900014EB074441EB17414FEA154714EB0C449D
:1011A00041EB1C4125EA074C02FB07F506FB07F75C
:1011B0000CFB06F602FB0CFC16EB074645EB17454D
:1011C00016EB0C4645EB1C42121951F1000148BFC9
:1011D0007047B619524141EB0101A3F10103704779
:1011E0004FEA14454FEA114724EA054621EA074C25
:1011F00005FB07F106FB07F70CFB06F24FF00006B4
:1012000005FB0CFC12EB074241EB174112EB0C42C1
:1012100051EB1C4148BF7047921841EB0101A3F10B
:1012200001037047014800F09BBA00003C00002019
:1012300070B5044600688168C943C90717D1816841
:1012400021F00101816000F0FFFE05460AE000BFC9
:1012500000F0FAFE401B022804D920688068C043D1
:10126000C00706D020688068C043C007F0D00020C7
:1012700070BDA06A40F01000A062E06A40F001007A
:10128000E062012070BD10B50146406A826A12F02A
:10129000500F05D0006A026BBDE8104008461047A9
:1012A000816A41F40071816201688968C1F3424139
:1012B00007290CD1017B51B9816A21F480718162C7
:1012C000816AC90403D4816A41F00101816200F09E
:1012D0009FF910BD10B5406A816A41F040018162FA
:1012E000C16A41F00401C16200F039FA10BD10B5C5
:1012F000406A00F033FA10BDF8B5002604460096A7
:1013000000688168C943C9072DD0816841F0010197
:101310008160164816490068B0FBF1F000E0401EFD
:1013200000900028FBD100F08FFE054616E000BFBC
:1013300000F08AFE401B022810D920688068C04354
:10134000C0070BD0A06A40F01000A062E06A40F035
:101350000100E06284F824600120F8BD2068806804
:10136000C043C007E4D10020F8BD000024000020E5
:1013700040420F00C8220249024800F03FBB000073
:10138000E80700203C000020014800F0BDBB000041
:101390003C000020FEE7000010B586B0002002905F
:1013A0001148816941F00801816180690F4C00F0AA
:1013B000080004907020009001200190039069467D
:1013C000204600F04BFD01224021204600F036FE71
:1013D00000221021204600F031FE0022202120466C
:1013E00000F02CFE06B010BD00100240000C0140C1
:1013F0002DE9F041174E0546002422464021304693
:1014000000F01CFE01F081FF4FF6FF77280401D5A4
:10141000012200E000222021304600F00FFE07EA02
:10142000450501F072FF01221021304600F006FE52
:1014300001F06BFF00221021304600F0FFFD641C1C
:10144000E4B2102CE2D33046BDE8F0410122402145
:1014500000F0F4BD000C014010B50022064B02F074
:101460009DF80022054B02F06DFA02F0EFF9BDE89D
:10147000104080B2FFF7BCBF00000440E0FFEF4027
:10148000014800F0DBBB00006C00002030B590F894
:1014900040500124AC40C56B6C60046863604368D5
:1014A000102B036803D099600068C26030BD9A6059
:1014B0000068C16030BD000010B500200E4B014631
:1014C00033F81120824200D91046491CC9B2C829FC
:1014D000F6D302F0E8F94FF0C042084B02F032FABE
:1014E0000022074B02F05AF8074B064A1B8802EB12
:1014F000C302C2E9000110BDE807002066660A4089
:1015000000FEAF40A801002000000020704772B626
:10151000FEE77047F8B50024009490F82420254693
:10152000012A12D0012280F824204A681F23072AAA
:101530000DD20668776B521E02EB820293409F43E6
:101540000B6893401F43776319E00220F8BD0668DB
:101550000D2A0AD2376BD21F02EB820293409F43BF
:101560000B6893401F43376309E0F76A0D3A02EBBB
:10157000820293409F430B6893401F43F7620A68BF
:10158000072306680A2A0AD3F7680A3A02EB4202DE
:1015900093409F438B6893401F43F76008E037698F
:1015A00002EB420293409F438B6893401F43376195
:1015B0000A68102A01D0112A20D1124B02689A42DF
:1015C00017D193681B0219D4936843F40003936006
:1015D0000968102912D10C490C4A0968B1FBF2F1D3
:1015E00001EB8101490000E0491E00910029FBD177
:1015F00004E0816A41F020018162012480F82450D6
:101600002046F8BD002401402400002040420F0085
:101610002DE9F047464988427ED1464C0025A088F6
:1016200018B3FFF749FF208802F098FC424902F006
:10163000D3FB02F0A5FB06460F46DFF80081D4E994
:1016400002010022434601F0A9FF32463B4601F069
:10165000F1FEFFF701FF0A2001F052FE2088401C36
:1016600080B22080282827D020E0FFF725FF20889F
:1016700002F074FC324902F0AFFB02F081FBFFF78D
:10168000EBFE0A2001F03CFE2088401C80B2208046
:1016900012280BD101F066FE00224FF0804302F0C9
:1016A00085FAC4E902010120A08025806088A0B3EA
:1016B000BDE8F047FFF75EBE01F054FEDFF884900E
:1016C00000224B46C4E9040101F068FF06460F46BC
:1016D000D4E902010022434601F060FF32463B4656
:1016E00001F0A8FEFFF7B8FED4E9040100224B4642
:1016F00001F054FF07460E46D4E90201002243469A
:1017000001F04CFF3A46334601F094FE02460B4688
:101710000DA0FEF765FD01E007E002E0A580658011
:101720002580BDE8F047FFF72FBEBDE8F087000039
:101730003C000020000000200000C84200002440BF
:101740000000204100005940CBF8B6A8CEBBD6C35C
:10175000203D20256620560D0A0000007047704786
:1017600070B50446006806684568A90625D5B10726
:1017700023D5A16AC90603D4A16A41F40071A1620C
:101780008168C1F34241072910D1217B71B94168B9
:1017900021F020014160A06A20F48070A062A06A5C
:1017A000C00403D4A06A40F00100A0622046FFF705
:1017B0002FFF21686FF01200086028062ED57007F1
:1017C0002CD5A06AC00603D4A06A40F40050A062E1
:1017D00020688168C1F30231072909D041684905B1
:1017E00015D48168C1F34241072910D1217B71B919
:1017F000416821F080014160A06A20F48050A0621D
:10180000A06AC00503D4A06A40F00100A06220468F
:10181000FFF77FFE21686FF00C00086068060CD5AA
:10182000F0070AD0A06A40F48030A062204600F0A1
:1018300093F821686FF00100086070BD2DE9F04158
:101840004FF0000704003D467ED0A06A002628B96C
:10185000E66284F82460204600F080F82046FFF716
:10186000E7FCA16A01F01001014304D0A06A40F036
:101870001000A06268E0A16A21F4885141F00201E1
:10188000A1626268E169237B0A4347EA43010A4394
:10189000A1684FF48077B94208D0012906D0002111
:1018A00094F814C0BCF1010F02D00AE03946F7E702
:1018B000F3B1A36A43F02003A362E36A43F0010398
:1018C000E3622368D3F804C02CF4694C4CEA010CA1
:1018D000C3F804C023689968DFF870C001EA0C01FE
:1018E00011439960A168B9420BD0012909D00CE0DD
:1018F000DFF85CC0A3690CEB43330B4343F4006196
:10190000DFE7218A0D05A5F580152168CB6A23F450
:1019100070032B43CB62216889680E4B19409142BA
:1019200008D1E662A16A21F0020141F00101A16241
:10193000BDE8F081A06A20F0020040F01000A06233
:10194000E06A40F00100E0620120F1E7FDF7E1FF0D
:1019500000E0FFFFFE0E1FFF7047000070B586B06D
:1019600000250646009501950295039500681E49DD
:10197000884236D11D49886940F4007088618869C1
:1019800000F400700490886940F004008861886960
:10199000694600F0040004900120009003200190AB
:1019A000134800F05BFA144C1248C4E9000580208B
:1019B000C4E9025040002061800060612020C4E939
:1019C0000605204600F0E4F908B1FFF7A0FD3462F7
:1019D000002211461220666200F0A2FB122000F0E5
:1019E00091FB06B070BD00000024014000100240D1
:1019F00000080140080002406C0000202DE9F0477B
:101A0000894604463B4900683B4F0E1D904688427C
:101A100001D0B84207D1306810F4702F03D00125EF
:101A20002846BDE8F08794F8240001280CD0012056
:101A300084F824002046FFF75FFC05004FF000000B
:101A400004D084F82400EBE70220EAE7A16A40F61C
:101A50000162914341F48071A1622168B94218D1B9
:101A6000326812F4702F14D0A16A41F48011A1627F
:101A70003168490505D5A16A21F4005141F480512E
:101A8000A162A16AC9040AD5E16A21F00601E162F6
:101A900006E0A26A22F48012A2624968E9E7E062E5
:101AA00084F82400216A15488862216A1448C862B3
:101AB000216A1448086321686FF0020008602068FA
:101AC000816841F480718160216843464A464C3107
:101AD000206A00F08BF920688168C1F34241072930
:101AE000816803D041F48011816099E741F4A0013D
:101AF000FAE7000000240140002801408712000896
:101B0000EF120008D512000810B5044690F8240022
:101B1000012807D0012084F824002046FFF788FB25
:101B200010B113E0022010BD21688A6822F480728F
:101B30008A60216A91F82120022A07D1084600F024
:101B40000EF8A16A30B141F04001A162002184F891
:101B5000241010BD21F4885141F00101F5E710B5C2
:101B600090F821100022022905D00421816380F819
:101B70002020012010BD01680B6823F00E030B60CC
:101B800001680B6823F001030B6090F84030C46BD0
:101B9000012101FA03F3636080F8211080F820200E
:101BA000104610BD10B590F821100024022903D072
:101BB0000421816301243DE001680A6822F00E02DD
:101BC0000A6001680A6822F001020A601A4A016884
:101BD000914201D1012121E0174A1432914201D1F1
:101BE00010211BE0144A2832914201D1891515E0D9
:101BF000114A3C32914201D189140FE00E4A503211
:101C0000914202D14FF4803108E00B4A6432914294
:101C100002D14FF4801101E04FF08071064A083A7A
:101C20005160012180F82110002180F82010416BC3
:101C300001B18847204610BD080002402DE9F05F41
:101C4000C16B0C6801680B68D0F840C0042202FA2E
:101C50000CF2494DDFF824A1494E4A4FDFF828B174
:101C6000DFF828E122422CD05A072AD50A689206CA
:101C700003D40A6822F004020A600168A94201D173
:101C8000042219E0514501D1402215E0B14202D1B0
:101C90004FF4806210E0B94202D14FF480420BE071
:101CA000594502D14FF4802206E0714502D14FF42C
:101CB000800201E04FF080622F4908394A60C16A12
:101CC0003BE04FF0020808FA0CF818EA040F4FF056
:101CD00000094FF0010235D05FEA837832D50B68F6
:101CE0009B0605D40B6823F00A030B6080F82120C3
:101CF0000168A94201D1022219E0514501D12022F7
:101D000015E0B14202D14FF4007210E0B94202D1A5
:101D10004FF400520BE0594502D14FF4003206E077
:101D2000714502D14FF4001201E04FF000721249E8
:101D300008394A6080F82090816A00291AD0BDE8ED
:101D4000F05F0847082505FA0CF5254212D01B075D
:101D500010D50B6823F00E030B6090F84010C36B96
:101D600002FA01F15960826380F8212080F8209006
:101D7000016BE2E7BDE8F09F080002401C00024052
:101D80003000024044000240580002406C00024013
:101D900030B528B308C8134914221944B1FBF2F135
:101DA0008900C16310498163022141771A6843F6B3
:101DB000F0718A43D0E900142143D0E902452C4355
:101DC0002143046921434469214384692143114328
:101DD000196000214163012242770177084630BD36
:101DE000012030BDF8FFFDBF0000024070B5044681
:101DF00090F82000002501280CD0012084F8200054
:101E000094F821600020012E06D084F820000225DD
:101E1000284670BD022070BD022684F82160A063B0
:101E20002068066826F0010606602046FFF72EFBB4
:101E3000E06A00282068016802D041F00E0106E047
:101E400021F0040101602068016841F00A0101608D
:101E50002068016841F001010160D9E72DE9F84FE0
:101E6000DFF8B8910024A9F1040B23460F2709F1EC
:101E7000040AABF1040EC9E00125A5402A40AA429C
:101E80007DD1674ED1F804C0ACEB0608B44532D022
:101E900014DCBCF1030F3AD009DCBCF1000F2AD0EE
:101EA000BCF1010F1CD0BCF1020F31D11DE0BCF11F
:101EB000110F17D0BCF1120F2AD119E0B8F5881F05
:101EC00019D006DCB8F5803F15D0B8F5801F1FD1BA
:101ED00011E0B8F5001F0ED0B8F5041F18D10AE0C4
:101EE000CB6815E0CB681B1D12E0CB6808330FE010
:101EF000CB680C330CE08B682BB1012B4FF008033F
:101F000003D0456104E0042302E0056100E0002302
:101F1000FF2A01D8064601E000F104064FEA8405D5
:101F200001D9A5F12005D6F8008007FA05FC28EABA
:101F30000C0803FA05F548EA0508C6F800804D6864
:101F4000ED0062D5374DAE6946F00106AE61AD6970
:101F500024F0030605F001050095334D06EB050C52
:101F6000DCF80850A607360F07FA06F825EA080538
:101F7000DFF8B880404503D14FF0000817E044E097
:101F8000DFF8AC80404502D14FF001080FE0DFF8E8
:101F9000A480404502D14FF0020808E0DFF89880A5
:101FA000404502D14FF0030801E04FF0040808FA61
:101FB00006F848EA0508CCF808804D68D9F80060B2
:101FC000ED024D4601D5164300E096432E604D6864
:101FD000DAF80060AD02554601D5164300E096439D
:101FE0002E604D68DBF80060AD035D4601D51643F9
:101FF00000E096432E604D68DEF80060ED03754604
:1020000001D5164300E096432E60641C0D682A46F5
:10201000E5407FF431AFBDE8F88F000008040140CF
:1020200000001110001002400000014000080140B3
:10203000000C014000100140001401400AB1016190
:1020400070470904FBE70000014880687047000002
:1020500018000020024881680278114481607047AE
:1020600018000020074810B5016841F01001016018
:10207000032000F075F80F2000F006F800F024F8B7
:10208000002010BD0020024070B50D4D04464FF4F5
:102090007A712878B1FBF0F00A490968B1FBF0F0D9
:1020A00000F082FB48B9102C07D200222146501EB6
:1020B00000F036F800206C6070BD012070BD00009B
:1020C00018000020240000200C4808B5816941F068
:1020D00001018161816901F001010091C16941F053
:1020E0008051C161C06900F080500090044841688F
:1020F00021F0E06141F08071416008BD00100240B4
:1021000000000140002809DB00F01F02012191407E
:102110004009800000F1E020C0F800117047000085
:10212000F0B40E4B1B680C46C3F30223C3F1070542
:10213000042D00D90425191D072901D2002300E030
:10214000DB1E012606FA05F1491E214099409E40FA
:10215000761E16403143F0BC01F0B1B80CED00E042
:10216000064900F0070208684FF6FF03184040EAEE
:102170000220034A10430860704700000CED00E0A5
:102180000000FA052DE9F84305460078354CC007F4
:1021900054D0E0690026C00008D4E06940F08050C7
:1021A000E061E069012600F0805000902E4801684F
:1021B000C90512D40168804641F480710160FFF7BF
:1021C00043FF074605E000BFFFF73EFFC01B642842
:1021D00023D8D8F80000C005F6D5206A10F4407066
:1021E00021D0A98801F4407181421CD0206A1F4986
:1021F000012220F440700A6000220A602062C007B9
:1022000011D0FFF721FF074641F2883808E000BFF0
:10221000FFF71AFFC11B414502D90320BDE8F8832F
:10222000206A8007F4D5206A696820F4407008436A
:1022300020621EB1E06920F08050E06128788007BC
:1022400005D56068A96820F440400843606028789C
:10225000C00605D56068E96820F480000843606026
:102260000020DBE7001002400070004040044242C2
:102270002DE9F0470F46050061D0434E306800F06D
:102280000700B84209D2306820F0070038433060B8
:10229000306800F00700B84251D128683B4C8107F4
:1022A00012D5400703D5606840F4E060606028788C
:1022B000000703D5606840F4605060606068A968FA
:1022C00020F0F000084360602878C00728D06868D4
:1022D000012810D02168022810D0890700292EDAA1
:1022E000616821F0030101436160FFF7ADFE8046A4
:1022F00041F288390DE021688903EFE78901EDE7B4
:10230000FFF7A2FEA0EB0801494502D90320BDE872
:10231000F0876068696800F00C00B0EB810FEFD1C6
:10232000306800F00700B8420BD9306820F0070091
:1023300038433060306800F00700B84201D0012017
:10234000E5E72878400705D56068E96820F4E06093
:10235000084360602878000706D56068296920F482
:10236000605040EAC100606000F038F86168084AD7
:10237000C1F30311515CC840064908600648006873
:10238000FFF782FE0020C2E700200240001002405A
:102390002E400008240000201C00002004480549AD
:1023A00000684968044AC1F30221515CC840704783
:1023B00024000020001002403E4000080448054967
:1023C00000684968044AC1F3C221515CC8407047A3
:1023D00024000020001002403E4000080E4A5168D0
:1023E0000E4801F00C03042B11D0082B0FD10C4820
:1023F000C1F38343C903C05C0AD55168084AC1F3DD
:102400004041921E515C054A5043B0FBF1F07047C9
:1024100004494843704700000010024000127A004F
:102420001E40000800093D0030B585B00020029034
:1024300002200190032003900B4C4FF48070009019
:10244000A0690D4640F00400A061A069694600F053
:10245000040004900548FFF701FD606820F0E0608B
:102460002843606005B030BD001002400008014004
:102470002DE9F84F040070D02078C04DC00749D036
:102480006868C0F38100012807D06868C0F3810044
:10249000022809D16868C00306D52868800339D5A9
:1024A00060680028E7D035E06068B0F5803F0BD069
:1024B00010B1B0F5A02F11D0286820F4803028602A
:1024C000286820F4802002E0286840F480302860EA
:1024D000606890B1FFF7B8FD06460AE0286840F44E
:1024E00080202860F0E700BFFFF7AEFD801B642866
:1024F00073D828688003F7D50CE0FFF7A5FD0646E2
:1025000005E000BFFFF7A0FD801B6428F0D8286815
:102510008003F7D420789A4E80074FF001094FF0DE
:10252000000839D5686810F00C0F07D06868C0F350
:102530008100022809D16868C00306D42868800792
:1025400014D52069012808D110E02069B0B1C6F87F
:102550000090FFF779FD074605E00AE1FFF774FDFB
:10256000C01B0228C4D828688007F7D5286861698D
:1025700020F0F80040EAC10028600DE0C6F80080B5
:10258000FFF762FD074604E0FFF75EFDC01B02286F
:1025900023D828688007F7D4207800072CD57948FD
:1025A000A169D9B1C0F80090FFF74EFD074604E0DD
:1025B000FFF74AFDC01B02280FD8686A8007F7D5CD
:1025C00071484FF4FA510068B0FBF1F0009000BF81
:1025D0000098411E0091FAD20EE080E0C0F8008021
:1025E000FFF732FD074604E0FFF72EFDC01B02286F
:1025F00075D8686A8007F7D42078400760D5E86905
:102600000027C00008D4E86940F08050E861E8691C
:10261000012700F0805000905C480168C90513D480
:102620000168834641F480710160FFF70DFD824629
:1026300006E000BFFFF708FDA0EB0A0064284ED8B3
:10264000DBF80000C005F5D5E06801280AD008B124
:10265000052813D0286A20F001002862286A20F09B
:10266000040002E0286A40F001002862E06841F2BC
:10267000883B98B1FFF7E8FC82460BE0286A40F0FF
:1026800004002862EEE700BFFFF7DEFCA0EB0A01C2
:1026900059455AD8286A8007F6D50CE0FFF7D4FCD4
:1026A000824605E0FFF7D0FCA0EB0A0159454CD863
:1026B000286A8007F6D41FB1E86920F08050E861ED
:1026C000E06988B36968C1F38101022944D0022816
:1026D000C6F8608004D0FFF7B7FC044638E034E069
:1026E000FFF7B2FC074604E0FFF7AEFCC01B022870
:1026F0002BD828688001F7D4206AB0F5803F05D137
:102700006868A16820F4003008436860D4E90801D3
:102710000843696821F4741108436860C6F8609042
:10272000FFF792FC044606E025E000BFFFF78CFCB3
:10273000001B022809D828688001F7D51BE000BFDC
:10274000FFF782FC001B022802D90320BDE8F88FA6
:1027500028688001F4D40EE00128F7D06868226A66
:1027600000F48031914204D1616A00F47010884213
:1027700001D00120EAE70020E8E700000010024055
:1027800000004242800442422400002000700040C9
:102790004FF0E0210428086903D020F0040008610C
:1027A000704740F00400FAE710B5401EB0F1807F9A
:1027B00001D3012010BD4FF0E02460610F216017AC
:1027C00000F07DFD0020A06107202061002010BDE9
:1027D00070B590F83C20012A26D0012480F83C40B6
:1027E000022280F83D2003685A689D6822F0700636
:1027F0000A6832435A600D4B02689A4208D0B2F11F
:10280000804F05D00A4B9A4202D00A4B9A4204D11B
:10281000496825F080031943916080F83D4000210C
:1028200080F83C10084670BD022070BD002C0140AD
:10283000000400400008004010B5040003D094F8E4
:102840003D0010B107E0012010BD002084F83C00DD
:10285000204600F01FF8022084F83D00211D20686A
:1028600000F0B2FB012084F8460084F83E0084F8B2
:102870003F0084F8400084F8410084F8420084F866
:10288000430084F8440084F8450084F83D000020AB
:1028900010BD000008B500680649884208D1064806
:1028A000C16941F00201C161C06900F002000090FD
:1028B00008BD0000000400400010024090F83D10E8
:1028C000012901D001207047022180F83D100068E5
:1028D0000B49884208D0B0F1804F05D009498842A1
:1028E00002D00949884204D1816801F00701062914
:1028F00003D0016841F00101016000207047000031
:10290000002C0140000400400008004070B504465F
:1029100090F83C000025012817D0012684F83C607F
:10292000022084F83D002068826822F0770222F4B9
:102930007F4282600868502838D00DDC20284FD0B4
:1029400005DC90B3102811D14AE0022070BD302878
:1029500046D040280AD13BE060282FD070280DD007
:10296000B0F5805F03D0B0F5005F12D0012584F888
:102970003D60002084F83C00284670BDCB68D1E95A
:102980000121206800F056FB2068816841F0770142
:1029900009E0CB68D1E90121206800F04BFB2068F9
:1029A000816841F480418160E1E719E0CA684968C3
:1029B000206800F051FB5021206806E0CA68496891
:1029C000206800F05AFB6021206800F03DFBCEE754
:1029D000CA684968206800F03FFB40212068F4E79E
:1029E000226801461046F0E770477047F8B5016865
:1029F00004460868CA684B6910F00F0F4FF00005D5
:102A00005AD003F0010602F49077374365D0C1072E
:102A100005D0D10503D5616C41F001016164410726
:102A200005D5D90703D0616C41F0020161648107CB
:102A300005D5D90703D0616C41F004016164010739
:102A400007D502F02001314303D0616C41F0080149
:102A50006164616C00293BD0800604D5900602D5E4
:102A6000204600F04BFB20684069616CC0F3801089
:102A700001F00801014320462BD000F018FB20682C
:102A80004069400621D52068143050E8001F21F02D
:102A9000400140E80012002AF5D1E06BA8B16D4971
:102AA0004163E06BFFF77EF8002811D0E06B416BCB
:102AB00001B0BDE8F040084783060ED593060CD55B
:102AC0002046BDE8F84000F019BB2046FFF78DFF17
:102AD000F8BDFFF78AFF6564F8BD266B2023012E41
:102AE0007CD1C6067AD5D60678D5086848680090A5
:102AF00048694FF00206400640D5E16B086840681F
:102B00000004000CE8D0A28D8242E5D9E0858869F6
:102B100020282DD020680C3050E8001F21F480714F
:102B200040E80012002AF5D12168143151E8000F65
:102B300020F0010041E80002002AF5D1206814309D
:102B400050E8001F21F0400140E80012002AF5D1B2
:102B500084F84230256320680C3050E8001F21F0D3
:102B6000100140E80012002AF5D1E06BFEF7F7FFF4
:102B70006663A08DE18D401A81B22AE0A08DE18DBF
:102B8000401A81B2E08D0028A6D00029A4D0226886
:102B90000C3252E8000F20F4907042E80007002F3A
:102BA000F5D12068143050E8002F22F0010240E8EF
:102BB0000027002FF5D184F84230256320680C30BF
:102BC00050E8002F22F0100240E80023002BF5D13E
:102BD00066632046FFF708FFF8BDFFE705062BD523
:102BE000150629D594F841002128F5D1A068B0F543
:102BF000805F01D12069B0B1206A411C2162216847
:102C000000784860E08C401E0004000CE084E3D1B2
:102C10002068C16821F08001C1602068C16841F06E
:102C20004001C160D8E7206A0088C0F3080048600E
:102C3000206A801C2062E5E74006CDD55006CBD542
:102C4000CA68204622F04002CA6084F8413000F091
:102C500076F8C1E79F30000870B5040004D094F8FE
:102C60004100002510B106E0012070BD84F84050FD
:102C7000204600F023F8242084F841002068C16831
:102C800021F40051C160204600F09AFA20680169E1
:102C900021F4904101612068416921F02A014161DC
:102CA0002068C16841F40051C1606564202084F847
:102CB000410084F842006563002070BD30B585B0E6
:102CC00000240094019402940394006818498842F7
:102CD0002CD11848816941F480418161816901F4F6
:102CE00080410491816941F0040181618069124D44
:102CF00000F0040004904FF4007000900220019056
:102D00000320039069462846FFF7A8F82815CDE967
:102D10000004694628460294FFF7A0F800221146F5
:102D20002520FFF7FDF92520FFF7ECF905B030BDB0
:102D30000038014000100240000801407047704711
:102D4000FEE700003EB50024104800940194029470
:102D50000D498460016004730475012505614FF419
:102D600000214460C161FEF769FD08B1FEF7CFFBA9
:102D7000CDE90045694605480294FEF7CBFB0028E3
:102D800001D0FEF7C4FB3EBD002401403C00002002
:102D9000094808B5416941F00101416140690022DB
:102DA00000F00100009011460B20FFF7B9F9BDE8D3
:102DB00008400B20FFF7A6B90010024030B585B0DF
:102DC00000241F480094019402940394816941F007
:102DD00010018161816901F010010491816941F064
:102DE00020018161816901F020010491816941F034
:102DF00004018161816901F004010491816941F05C
:102E00000801816180690F4D00F0080004900022E4
:102E100070212846FFF712F90221A815CDE900011B
:102E2000039169460848FFF719F8702001218DE8E1
:102E30001300039169462846FFF710F805B030BD2E
:102E400000100240000C01400008014010B586B09F
:102E500000241748009401940294039404941349A5
:102E60000594016040F2CF21C0E901143121C0E98D
:102E700003148461FFF7E0FC08B1FEF748FB4FF450
:102E80008050009069460A48FFF740FD08B1FEF700
:102E90003EFB2020CDE9040404A90548FFF798FC77
:102EA000002801D0FEF733FB06B010BD000400403F
:102EB000B00000200C4810B50A4901604FF4E13120
:102EC0004160002181600C22C160C0E9041281616F
:102ED000C161FFF7C1FE002803D0BDE81040FEF736
:102EE00016BB10BD00380140F8000020FEE70000CE
:102EF000094881680968096889060CD507490A6884
:102F0000074B41685A54491C4160642903D1002190
:102F100041600121017070472C00002004380140FD
:102F200040010020034988600068C16841F0200129
:102F3000C16070472C000020FEE770477047FFF724
:102F400089B830B593B028216846FDF7DCF9142123
:102F50000AA8FDF7D8F9002501200F9510951195C5
:102F6000010412958DE8230004904FF4E010CDE9A0
:102F70000810022407946846FFF77AFA08B172B67F
:102F8000FEE70AA90F2081E831004FF48060CDE907
:102F90000D0502210AA8FFF76BF908B172B6FEE72A
:102FA0004FF4004011900F940FA8FFF7EBF808B111
:102FB00072B6FEE700224FF0E0611046FFF734FAE8
:102FC00013B030BD70470000F0B50268164B174CC7
:102FD000174D4FF08047984205D0B84203D0A04229
:102FE00001D0A84203D122F070064A6832439842C9
:102FF00005D0B84203D0A04201D0A84203D122F4A8
:103000004074CA6822434C6922F080022243026065
:103010008A68C2620A688262984201D109690163C2
:1030200001214161F0BD0000002C0140000400407E
:103030000008004010B5846842EA032224F47F446B
:103040000A432243826010BD826822F070020A4364
:1030500042F007018160704710B5036A046A24F0EA
:1030600001040462846924F0F00444EA021423F0A9
:103070000A020A438461026210BD10B5036A046A41
:1030800024F010040462846923F0A00324F4704443
:1030900044EA023243EA01118261016210BD10B5B7
:1030A000406A0021C185C184FFF79FFC10BD016803
:1030B0000C3151E8002F22F4907241E80023002BDC
:1030C000F5D10168143151E8002F22F0010241E8E6
:1030D0000023002BF5D1016B012909D101680C31C6
:1030E00051E8002F22F0100241E80023002BF5D117
:1030F000202180F8421000210163704708B590F844
:103100004210222901D0022008BD82684FF480536A
:103110009A4201D1016921B1816A9A421BD04AB118
:103120000AE00268816A5268C2F308020A80816A72
:10313000891C08E0026972B10268526802F07F02DD
:103140000A70816A491C8162C18D491E0904090CFB
:10315000C18503D01BE002685268F1E70168CA68C4
:1031600022F02002CA600168CA6822F48072CA6034
:1031700001684A6922F001024A61202180F8421068
:1031800000214163026B012A03D0FFF7D7FD002025
:1031900008BD016301680C3151E8002F22F01002D4
:1031A00041E80023002BF5D101680A68D20602D558
:1031B0000A6849680091818DFFF716FCE7E7000077
:1031C00070B5044600680169E26821F4405111437A
:1031D00001612169A0680843616908432168CA68E0
:1031E00041F20C639A430243CA6020684169A269B4
:1031F00021F44071114341611E492068884202D187
:10320000FFF7DCF801E0FFF7C9F800EBC00101EBC4
:103210000012606864218000B2FBF0F3B3FBF1F3AD
:103220006FF018067343B2FBF0F5B2FBF0F605EB56
:103230008305322303EB0515B5FBF1F5B6FBF1F67B
:1032400005F0F00505EB0615B2FBF0F6B2FBF0F069
:10325000B0FBF1F06FF01802504306EB800003EB77
:103260000010B0FBF1F0216800F00F0028448860E6
:1032700070BD00000038014010B50448FFF738FE6B
:10328000BDE810400248FFF7B1BB00000038014024
:10329000F8000020FEE7490050EAC12018BF0420D2
:1032A0004A0D18BF40F0010040F2FF72B2EB515FCF
:1032B00008BF40F00200012808BF05207047090739
:1032C000090E002804DB00F1E02080F800147047AC
:1032D00000F00F0000F1E02080F8141D7047303836
:1032E0000A2801D2012070470020704710B504461B
:1032F0000420FFF74DFA0148048010BD280000208B
:103300004FF47A71484300F005B83020401EC0B237
:10331000FCD2704770B54FF0E0240022656909497E
:10332000A36909884843A1699942FCD002D2A3EB62
:10333000010302E0A5EB010633441A440B46824226
:10334000F1D370BD280000200449896809680A6823
:103350005206FCD5024AC1B2116070472C00002011
:10336000043801402DE9F05F00274FF06635114E1B
:10337000B8463C46DFF840B0DFF8409012E000BFAE
:103380000BEBC40082460CC82846314600F0D8FB3F
:1033900006D2DAE90056204600F085FA074688464C
:1033A000641CA4B2B9F800008442E9D3384641460F
:1033B000BDE8F09F66660A40A801002000000020DA
:1033C000FEF750FEFFF7BDFDFFF7F8FCFFF7E0FC4E
:1033D000FFF770FDFFF7B6FCFFF738FD0848FFF771
:1033E000A1FD4820FFF782FF0648FFF767FAFDF7C7
:1033F000D3FF00200146FEF72FF8FDF7BBFFFEE7E5
:10340000F8000020B000002010B500290AD008788C
:10341000002807D005487844FDF702FB002801D0BA
:10342000002010BD0248784410BD0000E60C0000EA
:10343000DE0C000010B591EA030F48BF83F0004393
:1034400000F1BC83841A71EB030C05D2121943EB13
:103450000C03001B61EB0C01DFF824E14FEA11546F
:10346000A4EB135C1EEA430F18BF9EEA445F73D0BF
:1034700023EA0E03DCF1200E21EA045143F4801309
:1034800032D322FA0CFE10EB0E0023FA0CFE41EBB5
:103490000E01CCF1200E03FA0EFE10EB0E0051F1DE
:1034A0000001B1F5801FCCF1200E32D201EB0451A6
:1034B00012FA0EF2BDE8104058BF7047401C38BFEA
:1034C0005FEA420218BF7047002814BF20F00100D5
:1034D00041F100014FEA410313F5001F38BF704767
:1034E000A1F1C04100F026BB012A43EB0302ACF17D
:1034F000200CDCF11F0E32BF4FF0000E23FA0CF34C
:1035000010EB030041EB0451B4EB115FD0D0A1EB01
:10351000045101F5801149085FEA300001EB0451C4
:103520000ED350F1000038BF12FA0EFE08D1BDE8EC
:103530001040C9E7401C38BF5FEA4202CAD1C3E766
:10354000BDE810404FEA410313F5001F38BF704734
:10355000A1F1C04100F0EEBA9EEA445F08D011EA42
:103560005E0FBDE8104004BF01F00041002070472D
:10357000BDE8104070B500F08FFA00BF64FBBE3E9E
:103580000000E0FF491058BFC1F140415B1058BF37
:10359000C3F140438B42EFF3008070472DE9C041F7
:1035A00030B4DFF8A0C23CEA111418BF3CEA13148F
:1035B00000F0EC8081EA03051CEA111444EAD5749A
:1035C00018BF1CEA131500F0C780A4EB05044FF0E8
:1035D000004545EAC12145EAC32341EA505143EA87
:1035E000525304F17F74994204F500344FEAC0202D
:1035F0004FEAC22208BF904200F09C804FEA136558
:103600000FF24016765D4FEA134506FB05F7C7F14A
:10361000807706FB07F74FEAD737A7FB03687642A8
:10362000C8F58038A7FB06CE38BFA8F1010807FB14
:1036300008E64FF0000EA6FB028CE6FB03CEDCF1A1
:10364000000CCEF1004E38BFAEF1010EA6FB0C58B7
:103650004FF000074FF00005E6FB0E87A1FB08C600
:10366000A0FB07CE16EB0E0645F10005E1FB076552
:1036700015F1E04E7EBFA4F580345FEA46066D4149
:1036800016F1800745F100054FEA17274FEA066655
:1036900047EA0567A6F1DE46B6F1805F4FEA1525D9
:1036A0001FD9384624F0010C05EBC471BCF1FE6F44
:1036B00001EB0C1102D8F0BCBDE8008124425CBFD4
:1036C00001F5801E9EEAC47F02D4F0BCBDE80081F3
:1036D000244238D4F0BCA1F1C041BDE8004100F063
:1036E00029BA4FEAD22242EA43524FEAD323A7FB38
:1036F00002864FEAD02040EA415007FB03661EEAEB
:103700000E0F4FEAD12105FB026658BFA6EB00560B
:10371000B6EB00564FEA520E4EEAC37E18EB0E0E81
:1037200056EB530EBDD518EB02085E417F1C55F1D8
:103730000005B6E74FF480154FF000074FF0000684
:103740004FF00008ADE7F0BC4FF0000001F1C041C0
:1037500001F00041BDE8008111EA0C1F0CEA1315CD
:1037600000D00CE013EA0C1F00F025804FF00000A1
:10377000F0BC81EA030101F00041BDE80081F0BC2A
:10378000BDE8004181EA030100F0D4B9F0BCBDE816
:10379000004170B500F080F9097EFC3E00F007B8EA
:1037A00081EA03014FF0000001F00041704781EA17
:1037B000030100F0BFB9F0BCBDE800414FF00000CC
:1037C00021497047FFFDFBF9F7F5F4F2F0EEEDEB60
:1037D000E9E8E6E4E3E1E0DEDDDBDAD8D7D5D4D30F
:1037E000D1D0CFCDCCCBCAC8C7C6C5C4C2C1C0BF5B
:1037F000BEBDBCBBBAB9B8B7B6B5B4B3B2B1B0AF61
:10380000AEADACABAAA9A8A8A7A6A5A4A3A3A2A144
:10381000A09F9F9E9D9C9C9B9A99999897979695FF
:1038200095949393929191908F8F8E8E8D8C8C8B9B
:103830008B8A898988888787868585848483838223
:10384000828181800000FF070000F87F4FEA11535A
:10385000A3F58063D3F11E03A8BFD3F1200C08DBCE
:103860004FF0004242EAC12252EA505232FA03F0CB
:10387000704709420BD4102BC4BF0020704703F5DA
:10388000787CBCF1FF3F05D04FF0FF3070474FF020
:103890000000704770B500F0FFF800BF4992248027
:1038A00000207047F0E7B0FA80F310FA03F10AD075
:1038B000C3F11D0303F580634FEA41504FEA035201
:1038C00002EBD12170474FF00000704751EA030C22
:1038D00017D41CF5801F58BFBCF5801F00F106806F
:1038E000994218BF704708BF9042704707D711F53B
:1038F000801F58BF13F5801F19D499427047894221
:1039000070471CF5801F08D5BCF5801FF7D58B428A
:1039100018BF704708BF824270474FF4001C1CEB71
:10392000410F38BF1CEB430F01D28B42704770B57B
:1039300000F0B2F8922449004FF000514FF080534C
:10394000FFF720BEDFF848C170B51CEA111E1EBF8C
:103950001CEA13159EEA0C0F95EA0C0F00F06F801D
:1039600081EA030423EA4C134EEAD47E21EA4C1187
:1039700041F4801143F48013AE44A1FB024CA0FB40
:103980000365AEF17F7E361955EB0C05A1FB034CA8
:103990004CF10003A0FB021C16EB0C06654153F131
:1039A0000003094218BF46F0010613F4007F0BD153
:1039B0004FEA03314FEA0530340341EA155140EA3A
:1039C00016506FF003020AE04FEAC3214FEAC52008
:1039D000F40241EA555140EA56506FF0020202EB00
:1039E0002E4201EB025585EACE710AD05FEA440C03
:1039F00018BF24F0004450F1000041F1000120EA1A
:103A0000D47040F2FE7C624500D270BDA84214BF63
:103A10004FF080444FF04044002E08BF0024BEF118
:103A2000806FA8BFA1F1C041BDE8704080F28280E4
:103A30004FF0000001F1C04101F0004170479EEAE3
:103A40000C0F0CEA131518BF95EA0C0F06D04FF0B7
:103A5000000081EA030E0EF0004170BD00F01CF87A
:103A60008900013E00F007B800F009B84FEA430CA6
:103A70005FEA5C5C08D081EA030100F05BB84FEAC2
:103A8000410C5FEA5C5CF6D14FF0000001497047E1
:103A90000000FF070000F87F0EF1020E2EF0030E6B
:103AA0005EF8046B364205D4012A43EB030515F595
:103AB000001F12D8012841EB010C1CF5001F0CD887
:103AC0000ED14FEAD17C15F5001F0CEB4C0C0CF11C
:103AD000020C08BF4CEBD37C04E04FF0080C01E073
:103AE0004FEAD37C0CEB4C0526FA05F606F00706E8
:103AF000B6F1040C06D20EEB860CBDE870404CF01B
:103B0000010C6047DFE80CF0090B02024FF00041A6
:103B10004FF00000A1F5002170BD194610460128A4
:103B200051EB010418BFD4F5001484BF002001F04C
:103B3000004170BD0808A0F500114FEA310170473F
:103B400053EA010C17D41CF5801F58BFBCF5801F29
:103B500000F106808B4218BF704708BF8242704751
:103B600007D713F5801F58BF11F5801F19D48B425A
:103B700070479B4270471CF5801F08D5BCF5801F1D
:103B8000F7D5994218BF704708BF904270474FF46D
:103B9000001C1CEB430F38BF1CEB410F01D29942B4
:103BA00070470FB40CBC03BCFFF7C1BE10B591EA5F
:103BB000030F48BF83F000433FF544AC841A71EB18
:103BC000030C07D212198CF0004C43EB0C03001BC2
:103BD00061EB0C01DFF8A4E14FEA1154A4EB135C94
:103BE0001EEA430F18BF9EEA445F00F0B08023EA4C
:103BF0006E03524221EA0451C3EB6E0338BF5B1ED1
:103C0000DCF1200E25D322FA0CFE10EB0E0043FA55
:103C10000CFE41EB0E01CCF1200E03FA0EFE10EB70
:103C20000E0051F10001CCF1200E29D412FA0EF24F
:103C300001EB0451BDE8104058BF7047401C1CBF49
:103C4000B2F1004F704700280CBF491C20F0010062
:103C5000704712EB020E43EB030218BF4FF0010E48
:103C60004EEA4202ACF1200CDCF11E0E54D943FAAC
:103C70000CFE10EB0E0051F1FF31CCF11E0ED5D52C
:103C80000EF1010E12FA0EFE404141EB010101EB73
:103C9000445C5FEA5C5C10D910EBDE7001EB045110
:103CA00038BFBEF1004FBDE8104018BF7047002874
:103CB0000CBF491C20F00100704730D24FEAD42CD1
:103CC00011F5001124F400641BD0B1FA81F20B3A13
:103CD000A41AA41ED2F12003914030FA03F3194331
:103CE000904001EBCC71002C01EB0451BDE8104079
:103CF000A8BF704701F1C0414FF0000001F0004142
:103D00007047B0FA80F310FA03F100D110BDE41A45
:103D1000173C4805C90AE4E701EB045110BD4910FE
:103D200001EB0451BDE810404FEA300002E04FF0D3
:103D3000000170474A0008BF0042F8D0B2F5001FEA
:103D400028BF704701F000414FF0000070479EEA25
:103D5000445F07D011EA5E0FBDE8104004BF0021A8
:103D600000207047BDE8104070B5FFF795FE00BF1A
:103D700040DFF63E83F00041104670470000E0FF50
:103D800043004FEAD30C4FEA3C0C43401FBF4007AF
:103D90000CF1605113F0FE4F70471CF0006F03D11F
:103DA00000200CF0004170470CF0004343EA5070D3
:103DB00010B540EACC0000F0E4F800BF000000922B
:103DC0004FEA0001FFF7B6BE4FF000414FF0000090
:103DD000A1F50021704700004FF47F0C1CEAD012BF
:103DE0001EBF1CEAD11392EA0C0F93EA0C0F00F0ED
:103DF000858090EA010F48BF42F4807240F4000CC5
:103E000041F400002CF07F4120F07F4000B581425A
:103E1000A2EB03020FF2081CACEB504EC0F1000005
:103E20009EF800E04FEA4E0E00FB0EFC38BF490042
:103E30004FEA2C1C02F5FA020CFB0EF34FEACE1EE1
:103E40004FEA112C4FEAC1210EEB635E42EB224296
:103E50000EFB0CFC4FEA1C5300FB03114FEA112C24
:103E60004FEA01310EFB0CFC4FEADC4C00FB0C115D
:103E7000C14228BF09184CEB03335DF804EB10EB8B
:103E8000410143EBC250B2F57C0F38BF704729D5D2
:103E900012F0F00F1CBF00F1C04000F0004070476E
:103EA000008182838485868788898B8C8D8E8F9113
:103EB0009293959697999A9C9D9FA0A2A3A5A7A837
:103EC000AAACAEB0B2B3B5B7B9BCBEC0C2C5C7C963
:103ED000CCCED1D4D7D9DCDFE2E6E9ECF0F3F7FAC7
:103EE000FE0000004FEA400C0CF1807CBCF17E4FDC
:103EF00028BF7047B0F1C04000F089B890EA010FC8
:103F00000CEAD11348BF42F48072624538BF634562
:103F100007D213F47F0F16D080EA010000F00040B2
:103F2000704710B500F02DF8097EFC3E00F005B892
:103F300080EA010000F00040704780EA010000F0D4
:103F4000004000F064B812F47F0F04BF02487047CD
:103F500080EA010000F05BB80000C07FB0FA80F397
:103F600010FA03F2C3F19D030AD0D90501EB122028
:103F7000530638BF704700F1010008BF20F0010070
:103F800070470EF1020E2EF0030E5EF8044B244231
:103F900004D44FEA4102B2F17F4F11D84FEA4003F7
:103FA000B3F17F4F0CD80ED14FEAD07CB2F17F4FE6
:103FB0000CEB4C0C0CF1020C08BF4CEBD17C04E078
:103FC0004FF0080C01E04FEAD17C0CEB4C0324FAD3
:103FD00003F404F00704B4F1040C06D20EEB840CD5
:103FE000BDE810404CF0010C6047DFE80CF007081A
:103FF00002024FF00040A0F5800010BD08464200CC
:1040000018BFD2F1807288BF00F0004010BDFF21C0
:1040100041EAD050C0057047FCF776BA01020203AE
:104020000405060708090A0B0C0D0E0F10100000FE
:104030000000000000000102030406070809000058
:10404000000001020304000002400000000000A084
:104050000000000005400000000000C80000000053
:104060000C4000000000409C0000000019400000CF
:104070000020BCBE0000000034400000BFC91B8E01
:1040800000000004B5400000504BCFD06607E2CFDF
:10409000010000006C4100003E8251AADFEEA7340F
:1040A00001000000D9420000DCB5A0E23A301F97C1
:1040B000FFFFFFFFB4450000FD25A0C8E9A3C14FE5
:1040C000FFFFFFFFFF3F0000000000800000000036
:1040D000FF3F0000000000800000000018410008C1
:1040E000000000203C0000002801000854410008A6
:1040F0003C0000209C0F0000440100081C00000050
:1041000043000000F8FFFFFF0C0000000E0000005D
:104110000F0000002E000000000001000000000061
:10412000000000000000000000000000000000008F
:104130000100000010000000000000000024F40056
:10414000000000000000000000000000000000006F
:04415000000000006B
:04000005080000ED02
:00000001FF
